:0C00C800C202C201C200E4F50FF50E22D6
:10000E00538EFD438E805389FB5389FC758CFE7590
:10001E008A80D2A9D28CD2AF53B1C343B23C43B182
:10002E000353B2FC1200C8C2B2C2B3C2B4C2B530DE
:10003E0000FDC200E50AB4A505D203E4F5143003B1
:10004E000AAF14051474102FF8A60AE514B403DFD2
:10005E00C203E51130E006E51224FF92B2E511303D
:10006E00E106E51224FF92B3E51130E206E5122413
:10007E00FF92B4E51130E3B7E51224FF92B580AFDD
:03000B0002008E62
:10008E00C0E0C0D0300123150EE50E7028750E03AA
:10009E00D50B0985080AC201D2008019E508C313E1
:1000AE00F50830B110430880800B20B108D20175DD
:0A00BE000E04750B09D0D0D0E0321B
:030000000200D427
:0C00D400787FE4F6D8FD75812002000E54
:00000001FF
